{
  "contractName": "kudos",
  "abi": [
    {
      "inputs": [
        {
          "name": "_burnPeriod",
          "type": "uint256"
        },
        {
          "name": "_mintPeriod",
          "type": "uint256"
        },
        {
          "name": "_mintAmount",
          "type": "uint256"
        }
      ],
      "payable": false,
      "stateMutability": "nonpayable",
      "type": "constructor"
    },
    {
      "anonymous": false,
      "inputs": [
        {
          "indexed": false,
          "name": "addedUser",
          "type": "address"
        }
      ],
      "name": "addedUser",
      "type": "event"
    },
    {
      "anonymous": false,
      "inputs": [
        {
          "indexed": false,
          "name": "removedUser",
          "type": "address"
        }
      ],
      "name": "removedUser",
      "type": "event"
    },
    {
      "anonymous": false,
      "inputs": [
        {
          "indexed": false,
          "name": "kudosAmount",
          "type": "uint256"
        },
        {
          "indexed": false,
          "name": "kudosValue",
          "type": "uint256"
        }
      ],
      "name": "kudosBurnt",
      "type": "event"
    },
    {
      "anonymous": false,
      "inputs": [
        {
          "indexed": false,
          "name": "sender",
          "type": "address"
        },
        {
          "indexed": false,
          "name": "receiver",
          "type": "address"
        },
        {
          "indexed": false,
          "name": "amount",
          "type": "uint256"
        }
      ],
      "name": "kudosMint",
      "type": "event"
    },
    {
      "anonymous": false,
      "inputs": [
        {
          "indexed": false,
          "name": "func",
          "type": "string"
        },
        {
          "indexed": false,
          "name": "message",
          "type": "string"
        }
      ],
      "name": "Error",
      "type": "event"
    },
    {
      "constant": false,
      "inputs": [
        {
          "name": "_user",
          "type": "address"
        }
      ],
      "name": "addUser",
      "outputs": [],
      "payable": false,
      "stateMutability": "nonpayable",
      "type": "function"
    },
    {
      "constant": false,
      "inputs": [
        {
          "name": "_user",
          "type": "address"
        }
      ],
      "name": "removeUser",
      "outputs": [],
      "payable": false,
      "stateMutability": "nonpayable",
      "type": "function"
    },
    {
      "constant": false,
      "inputs": [
        {
          "name": "_receiver",
          "type": "address"
        },
        {
          "name": "_amount",
          "type": "uint256"
        }
      ],
      "name": "mintKudos",
      "outputs": [],
      "payable": false,
      "stateMutability": "nonpayable",
      "type": "function"
    },
    {
      "constant": false,
      "inputs": [
        {
          "name": "_sender",
          "type": "address"
        },
        {
          "name": "_receiver",
          "type": "address"
        },
        {
          "name": "_amount",
          "type": "uint256"
        },
        {
          "name": "_signature",
          "type": "bytes"
        }
      ],
      "name": "mintSignedKudos",
      "outputs": [],
      "payable": false,
      "stateMutability": "nonpayable",
      "type": "function"
    },
    {
      "constant": false,
      "inputs": [
        {
          "name": "_kudoUser",
          "type": "address"
        }
      ],
      "name": "mintReset",
      "outputs": [],
      "payable": false,
      "stateMutability": "nonpayable",
      "type": "function"
    },
    {
      "constant": false,
      "inputs": [],
      "name": "burnKudos",
      "outputs": [],
      "payable": false,
      "stateMutability": "nonpayable",
      "type": "function"
    }
  ],
  "bytecode": "0x608060405234801561001057600080fd5b50604051606080611375833981018060405281019080805190602001909291908051906020019092919080519060200190929190505050336000806101000a81548173ffffffffffffffffffffffffffffffffffffffff021916908373ffffffffffffffffffffffffffffffffffffffff1602179055508260028190555081600381905550806005819055504260048190555060006006819055505050506112b8806100bd6000396000f300608060405260043610610078576000357c0100000000000000000000000000000000000000000000000000000000900463ffffffff168063421b2d8b1461007d5780638af85690146100c057806393b930e6146100d75780639857518814610124578063ae5dd44d14610167578063d19281fa146101aa575b600080fd5b34801561008957600080fd5b506100be600480360381019080803573ffffffffffffffffffffffffffffffffffffffff16906020019092919050505061025d565b005b3480156100cc57600080fd5b506100d561050f565b005b3480156100e357600080fd5b50610122600480360381019080803573ffffffffffffffffffffffffffffffffffffffff16906020019092919080359060200190929190505050610755565b005b34801561013057600080fd5b50610165600480360381019080803573ffffffffffffffffffffffffffffffffffffffff169060200190929190505050610a52565b005b34801561017357600080fd5b506101a8600480360381019080803573ffffffffffffffffffffffffffffffffffffffff169060200190929190505050610c9e565b005b3480156101b657600080fd5b5061025b600480360381019080803573ffffffffffffffffffffffffffffffffffffffff169060200190929190803573ffffffffffffffffffffffffffffffffffffffff16906020019092919080359060200190929190803590602001908201803590602001908080601f0160208091040260200160405190810160405280939291908181526020018383808284378201915050505050509192919290505050610d78565b005b6040805190810160405280600781526020017f61646455736572000000000000000000000000000000000000000000000000008152503373ffffffffffffffffffffffffffffffffffffffff166000809054906101000a900473ffffffffffffffffffffffffffffffffffffffff1673ffffffffffffffffffffffffffffffffffffffff161415156103e9577fac283f5b35fa78f7f5e8923cb5db86b4c10c166580c43bb59f1d1d9ae108b70081604051808060200180602001838103835284818151815260200191508051906020019080838360005b8381101561034f578082015181840152602081019050610334565b50505050905090810190601f16801561037c5780820380516001836020036101000a031916815260200191505b50838103825260318152602001807f4f7065726174696f6e2063616e206f6e6c7920626520706572666f726d65642081526020017f627920636f6e7472616374206f776e6572000000000000000000000000000000815250604001935050505060405180910390a161050b565b6001600760008473ffffffffffffffffffffffffffffffffffffffff1673ffffffffffffffffffffffffffffffffffffffff16815260200190815260200160002060006101000a81548160ff02191690831515021790555060018290806001815401808255809150509060018203906000526020600020016000909192909190916101000a81548173ffffffffffffffffffffffffffffffffffffffff021916908373ffffffffffffffffffffffffffffffffffffffff160217905550507f791ea38b36f0d964fe943b6fae22924514d4895aeb506f8643188cfb05fb897b82604051808273ffffffffffffffffffffffffffffffffffffffff1673ffffffffffffffffffffffffffffffffffffffff16815260200191505060405180910390a15b5050565b60008060008060025460045401421015151561052a57600080fd5b600060065411151561053b57600080fd5b3073ffffffffffffffffffffffffffffffffffffffff163193506006548481151561056257fe5b049250600091505b6001805490508210156106ff57826008600060018581548110151561058b57fe5b9060005260206000200160009054906101000a900473ffffffffffffffffffffffffffffffffffffffff1673ffffffffffffffffffffffffffffffffffffffff1673ffffffffffffffffffffffffffffffffffffffff1681526020019081526020016000205402905060018281548110151561060357fe5b9060005260206000200160009054906101000a900473ffffffffffffffffffffffffffffffffffffffff1673ffffffffffffffffffffffffffffffffffffffff166108fc829081150290604051600060405180830381858888f19350505050158015610673573d6000803e3d6000fd5b5060006008600060018581548110151561068957fe5b9060005260206000200160009054906101000a900473ffffffffffffffffffffffffffffffffffffffff1673ffffffffffffffffffffffffffffffffffffffff1673ffffffffffffffffffffffffffffffffffffffff16815260200190815260200160002081905550818060010192505061056a565b426004819055507f585444bb7713bbe145b4f683510b93e268073d240f40618a9f9700e74954d4fe60065484604051808381526020018281526020019250505060405180910390a1600060068190555050505050565b8173ffffffffffffffffffffffffffffffffffffffff163373ffffffffffffffffffffffffffffffffffffffff161415151561079057600080fd5b60011515600760003373ffffffffffffffffffffffffffffffffffffffff1673ffffffffffffffffffffffffffffffffffffffff16815260200190815260200160002060009054906101000a900460ff1615151415156107ef57600080fd5b60011515600760008473ffffffffffffffffffffffffffffffffffffffff1673ffffffffffffffffffffffffffffffffffffffff16815260200190815260200160002060009054906101000a900460ff16151514151561084e57600080fd5b61085733610c9e565b80600960003373ffffffffffffffffffffffffffffffffffffffff1673ffffffffffffffffffffffffffffffffffffffff16815260200190815260200160002054101515156108a557600080fd5b80600960003373ffffffffffffffffffffffffffffffffffffffff1673ffffffffffffffffffffffffffffffffffffffff1681526020019081526020016000205403600960003373ffffffffffffffffffffffffffffffffffffffff1673ffffffffffffffffffffffffffffffffffffffff1681526020019081526020016000208190555080600860008473ffffffffffffffffffffffffffffffffffffffff1673ffffffffffffffffffffffffffffffffffffffff1681526020019081526020016000205401600860008473ffffffffffffffffffffffffffffffffffffffff1673ffffffffffffffffffffffffffffffffffffffff168152602001908152602001600020819055507f8f40d154835db53255d1fdb97ee864bed010819c3236c18bd23537fd21f9e78e338383604051808473ffffffffffffffffffffffffffffffffffffffff1673ffffffffffffffffffffffffffffffffffffffff1681526020018373ffffffffffffffffffffffffffffffffffffffff1673ffffffffffffffffffffffffffffffffffffffff168152602001828152602001935050505060405180910390a15050565b6040805190810160405280600a81526020017f72656d6f766555736572000000000000000000000000000000000000000000008152503373ffffffffffffffffffffffffffffffffffffffff166000809054906101000a900473ffffffffffffffffffffffffffffffffffffffff1673ffffffffffffffffffffffffffffffffffffffff16141515610bde577fac283f5b35fa78f7f5e8923cb5db86b4c10c166580c43bb59f1d1d9ae108b70081604051808060200180602001838103835284818151815260200191508051906020019080838360005b83811015610b44578082015181840152602081019050610b29565b50505050905090810190601f168015610b715780820380516001836020036101000a031916815260200191505b50838103825260318152602001807f4f7065726174696f6e2063616e206f6e6c7920626520706572666f726d65642081526020017f627920636f6e7472616374206f776e6572000000000000000000000000000000815250604001935050505060405180910390a1610c9a565b6000600760008473ffffffffffffffffffffffffffffffffffffffff1673ffffffffffffffffffffffffffffffffffffffff16815260200190815260200160002060006101000a81548160ff0219169083151502179055507fddf927dd5997266148192af5ebf0310cde23bb086d9a3d0f54547b2ecbdea35682604051808273ffffffffffffffffffffffffffffffffffffffff1673ffffffffffffffffffffffffffffffffffffffff16815260200191505060405180910390a15b5050565b600354600a60008373ffffffffffffffffffffffffffffffffffffffff1673ffffffffffffffffffffffffffffffffffffffff168152602001908152602001600020540142101515610d7557600554600960008373ffffffffffffffffffffffffffffffffffffffff1673ffffffffffffffffffffffffffffffffffffffff1681526020019081526020016000208190555042600a60008373ffffffffffffffffffffffffffffffffffffffff1673ffffffffffffffffffffffffffffffffffffffff168152602001908152602001600020819055505b50565b6000806000808673ffffffffffffffffffffffffffffffffffffffff168873ffffffffffffffffffffffffffffffffffffffff1614151515610db957600080fd5b60011515600760008a73ffffffffffffffffffffffffffffffffffffffff1673ffffffffffffffffffffffffffffffffffffffff16815260200190815260200160002060009054906101000a900460ff161515141515610e1857600080fd5b60011515600760008973ffffffffffffffffffffffffffffffffffffffff1673ffffffffffffffffffffffffffffffffffffffff16815260200190815260200160002060009054906101000a900460ff161515141515610e7757600080fd5b610e8088610c9e565b85600960008a73ffffffffffffffffffffffffffffffffffffffff1673ffffffffffffffffffffffffffffffffffffffff1681526020019081526020016000205410151515610ece57600080fd5b878787604051602001808473ffffffffffffffffffffffffffffffffffffffff1673ffffffffffffffffffffffffffffffffffffffff166c010000000000000000000000000281526014018373ffffffffffffffffffffffffffffffffffffffff1673ffffffffffffffffffffffffffffffffffffffff166c0100000000000000000000000002815260140182815260200193505050506040516020818303038152906040526040518082805190602001908083835b602083101515610fa95780518252602082019150602081019050602083039250610f84565b6001836020036101000a03801982511681845116808217855250505050505090500191505060405180910390209350610fe18561124f565b9250925092508773ffffffffffffffffffffffffffffffffffffffff16600185858585604051600081526020016040526040518085600019166000191681526020018460ff1660ff1681526020018360001916600019168152602001826000191660001916815260200194505050505060206040516020810390808403906000865af1158015611075573d6000803e3d6000fd5b5050506020604051035173ffffffffffffffffffffffffffffffffffffffff1614156112455785600960008a73ffffffffffffffffffffffffffffffffffffffff1673ffffffffffffffffffffffffffffffffffffffff1681526020019081526020016000205403600960008a73ffffffffffffffffffffffffffffffffffffffff1673ffffffffffffffffffffffffffffffffffffffff1681526020019081526020016000208190555085600860008973ffffffffffffffffffffffffffffffffffffffff1673ffffffffffffffffffffffffffffffffffffffff1681526020019081526020016000205401600860008973ffffffffffffffffffffffffffffffffffffffff1673ffffffffffffffffffffffffffffffffffffffff168152602001908152602001600020819055507f8f40d154835db53255d1fdb97ee864bed010819c3236c18bd23537fd21f9e78e888888604051808473ffffffffffffffffffffffffffffffffffffffff1673ffffffffffffffffffffffffffffffffffffffff1681526020018373ffffffffffffffffffffffffffffffffffffffff1673ffffffffffffffffffffffffffffffffffffffff168152602001828152602001935050505060405180910390a15b5050505050505050565b60008060006041845114151561126457600080fd5b6020840151915060408401519050606084015160001a925082828292509250925091939092505600a165627a7a72305820cc3af42e6e6f75c677b3f6432ce1468b479040adbbff42c383b0428575ce1bc10029",
  "source": "pragma solidity ^0.4.23;\n\ncontract kudos {\n    \n    event addedUser(address addedUser);\n    event removedUser(address removedUser);\n\n    event kudosBurnt(uint kudosAmount, uint kudosValue);\n    event kudosMint(address sender, address receiver, uint amount);\n\n    event Error(string func, string message);\n\n    address owner;\n    address[] userList;\n\n    uint burnPeriod;\n    uint mintPeriod;\n    uint lastBurn;\n    uint mintAmount;\n    uint totalSupply;\n\n    mapping (address => bool) kudosUser;\n    mapping (address => uint) balanceOf;\n    mapping (address => uint) mintCount;\n    mapping (address => uint) lastReset;\n\n    modifier onlyOwner(string _funcName) {\n        if(owner != msg.sender){\n            emit Error(_funcName, \"Operation can only be performed by contract owner\");\n            return;\n        }\n        _;\n    }\n\n    constructor (uint _burnPeriod, uint _mintPeriod, uint _mintAmount) public {\n        owner = msg.sender;\n        burnPeriod = _burnPeriod;\n        mintPeriod = _mintPeriod;\n        mintAmount = _mintAmount;\n        lastBurn = now;\n        totalSupply = 0;\n    }\n\n    function addUser(address _user) public onlyOwner(\"addUser\"){\n        kudosUser[_user] = true;\n        userList.push(_user);\n        emit addedUser(_user);\n    }\n\n    function removeUser(address _user) public onlyOwner(\"removeUser\") {\n        kudosUser[_user] = false;\n        emit removedUser(_user);\n    }\n\n    function mintKudos(address _receiver, uint _amount) public {\n        require(msg.sender != _receiver);\n        require(kudosUser[msg.sender] == true);\n        require(kudosUser[_receiver] == true);\n\n        mintReset(msg.sender);\n\n        require(mintCount[msg.sender] >= _amount);\n\n        mintCount[msg.sender] = mintCount[msg.sender] - _amount;\n        balanceOf[_receiver] = balanceOf[_receiver] + _amount;\n        emit kudosMint(msg.sender, _receiver, _amount);\n    }\n\n    function splitSignature(bytes memory sig)\n        internal\n        pure\n        returns (uint8 v, bytes32 r, bytes32 s)\n    {\n        require(sig.length == 65);\n\n        assembly {\n            // first 32 bytes, after the length prefix\n            r := mload(add(sig, 32))\n            // second 32 bytes\n            s := mload(add(sig, 64))\n            // final byte (first byte of the next 32 bytes)\n            v := byte(0, mload(add(sig, 96)))\n        }\n\n        return (v, r, s);\n    }\n\n    function mintSignedKudos(address _sender, address _receiver, uint _amount, bytes _signature) public {\n        require(_sender != _receiver);\n        require(kudosUser[_sender] == true);\n        require(kudosUser[_receiver] == true);\n\n        mintReset(_sender);\n\n        require(mintCount[_sender] >= _amount);\n\n        bytes32 _messageHash = keccak256(abi.encodePacked(_sender,_receiver,_amount));\n \n\t\t(uint8 v, bytes32 r, bytes32 s) = splitSignature(_signature);\n\n        if (ecrecover(_messageHash, v, r, s) == _sender) {\n            mintCount[_sender] = mintCount[_sender] - _amount;\n            balanceOf[_receiver] = balanceOf[_receiver] + _amount;\n            emit kudosMint(_sender, _receiver, _amount);\n        }\n    }\n\n    function mintReset(address _kudoUser) public {\n        if (now >= lastReset[_kudoUser] + mintPeriod){\n            mintCount[_kudoUser] = mintAmount;\n            lastReset[_kudoUser] = now;\n            }\n    }\n\n    function burnKudos() public {\n        require(now >= lastBurn + burnPeriod);\n        require(totalSupply > 0);\n\n        uint _ethPool = address(this).balance;\n        uint _kudosValue = _ethPool / totalSupply;\n\n        for(uint i = 0; i < userList.length; i++) {\n            uint _amount = balanceOf[userList[i]] * _kudosValue;\n            userList[i].transfer(_amount);\n            balanceOf[userList[i]] = 0;\n        }   \n\n        lastBurn = now;\n        emit kudosBurnt(totalSupply, _kudosValue);\n        totalSupply = 0;\n    }\n\n}\n",
  "sourcePath": "/Users/josepereira/Documents/KudosToken/contracts/kudos.sol",
  "compiler": {
    "name": "solc",
    "version": "0.4.24+commit.e67f0147.Emscripten.clang"
  },
  "schemaVersion": "2.0.0",
  "updatedAt": "2018-09-08T14:04:36.337Z"
}